:1000000012C02BC02AC029C028C027C026C025C0C6
:1000100024C023C022C021C020C01FC01EC01DC0DC
:100020001CC01BC01AC011241FBECFE5D4E0DEBF28
:10003000CDBF10E0A0E6B0E0E2E9F3E002C0059039
:100040000D92A036B107D9F710E0A0E6B0E001C0EC
:100050001D92A036B107E1F787C1D2CFCF93DF93CE
:10006000982F8823B9F0A8E0B0E0C0E0D0E02DE4FC
:1000700030E040E050E082B38F7382BB8A2F8A95D4
:10008000F1F782B38F7B806882BB822F8A95F1F76C
:10009000915089F7DF91CF910895CF93DF93982FF7
:1000A0008823B9F0AAE0B0E0C0E0D0E02DE430E071
:1000B00040E050E082B38F7B806882BB8A2F8A95B4
:1000C000F1F782B38F7382BB822F8A95F1F791503B
:1000D00089F7DF91CF910895EF92FF920F931F93CD
:1000E000CF93DF9386E0BADF85E0D7DF85E0B6DF28
:1000F0008AE0E82EF12C012D112DA0E1B0E0C0E046
:10010000D0E06AE825E030E040E050E09EE082B3D5
:100110008F7382BB8E2D8A95F1F782B38F7B8068B7
:1001200082BB8A2F8A95F1F782B3806C82BB862FBF
:100130008A95F1F782B38F7B806882BB822F8A9584
:10014000F1F7915097FFE3CFDF91CF911F910F917E
:10015000FF90EF90089582B38F7B806882BB45E06B
:10016000842F8A95F1F782B38F77806482BB3DE05C
:10017000832F8A95F1F782B38F7B806882BB28E258
:10018000822F8A95F1F782B3806C82BB96E0892F2B
:100190008A95F1F782B38F77806482BB892F8A9525
:1001A000F1F782B38F7B806882BB822F8A95F1F74B
:1001B00082B38F77806482BB832F8A95F1F782B3F5
:1001C0008F7B806882BB842F8A95F1F7089582B374
:1001D000806C82BB45E0842F8A95F1F782B38F77DC
:1001E000806482BB3DE0832F8A95F1F782B3806CF7
:1001F00082BB28E2822F8A95F1F782B38F7B8068D9
:1002000082BB96E0892F8A95F1F782B38F7780645D
:1002100082BB892F8A95F1F782B3806C82BB822FD3
:100220008A95F1F782B38F77806482BB832F8A959A
:10023000F1F782B3806C82BB842F8A95F1F7089521
:1002400082B3806C82BB8AE88A95F1F7089582B305
:100250008F7382BB8DE08A95F1F782B38F7B8068C4
:1002600082BB80E18A95F1F70895F1DFE9DF089517
:1002700082B38F7B806882BB85E08A95F1F7089511
:10028000FF920F931F93CF93DF93F82E8B0124DF00
:10029000C0E0D0E0C017D10718F4E7DF2196FACF0D
:1002A000D6DF82B3806C82BB83E0F89E900111247C
:1002B000822F8A95F1F782B38F7B806882BB81E0C1
:1002C0008A95F1F782B3806C82BB82E8821B8A95A3
:1002D000F1F7CEDF81E0C633D80730F4C6DF2196D0
:1002E00081E0C633D807D0F3DF91CF911F910F91F2
:1002F000FF900895DF92EF92FF920F931F93CF9399
:10030000DF93EC017A01062F1127C417D50769F096
:100310008C2F2196B801B4DF8D2D992787FD9095FC
:10032000080F191FCE15DF0599F7DF91CF911F91A7
:100330000F91FF90EF90DF900895CF93DF9385E0CA
:1003400083BF12BE82B78F3F61F0C6DECAE2D1E042
:100350007EDF01DF8DDF2197D7FFFACF82B78F3F96
:10036000A1F7DF91CF910895CFE5D4E0DEBFCDBFF7
:1003700080EC81BBCEE1D0E011E0BE01812F80DFB7
:100380001F5F1C32D0F3219681E0C833D807A0F359
:02039000F1CFAB
:00000001FF
