:1000000012C02BC02AC029C028C027C026C025C0C6
:1000100024C023C022C067C020C01FC01EC01DC096
:100020001CC01BC01AC011241FBECFE5D4E0DEBF28
:10003000CDBF11E0A0E6B0E0EAE2F7E002C0059033
:100040000D92AE38B107D9F711E0AEE8B1E001C0CA
:100050001D92A33AB107E1F701C0D2CFC2E3D4E0C9
:10006000DEBFCDBF1CA61BA61DA67894579A61E0E3
:1000700087E69BD063E080E4D4D060E080ED4BD194
:1000800080E025D167E087E690E032D11CD160E0C6
:1000900080E941D162E085E690E02AD114D184E67E
:1000A00090E071D060E080E936D18EEE10D10BD1B6
:1000B00088EE93E068D08E01055D1F4F65E0C801B2
:1000C000D7D1A80165E080E690E0FFD18BA59CA583
:1000D00005969CA78BA7BC018DA571D2C8019AD1AA
:1000E00084EF91E0E7CF1F920F920FB60F92112489
:1000F0002F933F934F935F936F937F938F939F9330
:10010000AF93BF93EF93FF93CF93DF93CDB7DEB75A
:100110002897DEBFCDBF1F821E8218868CB199271B
:100120008434910561F08734910599F4888565E000
:1001300078D288858F5F88878830C8F30DC0AE017C
:100140004A5F5F4F61E0CE01019642D2898143D080
:1001500003C065E0805365D22896F894DEBFCDBF1A
:10016000DF91CF91FF91EF91BF91AF919F918F91CF
:100170007F916F915F914F913F912F910F900FBEA3
:100180000F901F901895AC0120E030E02417350740
:1001900038F48DEF97E00197F1F72F5F3F4FF6CFDF
:1001A0000895982F60BD99B90895262F9BB19D7F22
:1001B0003327220F331F922B9BB99AB198619AB9BA
:1001C000529890B596E890BD60E0EBDF08958AB153
:1001D000877E8AB908958CB95E9BFECF08951F93E0
:1001E000CF93DF93EC0110E08881882381F0FE013A
:1001F000E10FF11D8081EFDF80EA9FE00197F1F7C9
:100200001F5FFE01E10FF11D8081882381F7DF91DF
:10021000CF911F91089580B980B18C7F862B81B9D1
:100220000895F9DF86B7846486BF089586B78B7F0B
:1002300086BF08951F93CF93DF93CDB7DEB7239783
:100240000FB6F894DEBF0FBECDBF182F8EE690E03C
:10025000C6DF83B140E150E0BE016F5F7F4F992759
:100260002CD2CE010196BBDF87E990E0B8DF40E1F8
:1002700050E0BE016F5F7F4F812F99271ED2CE01C4
:100280000196ADDF81B1992740E150E0BE016F5F7B
:100290007F4F887F907011D28FEA90E0A0DFCE016F
:1002A00001969DDF23960FB6F894DEBF0FBECDBF3B
:1002B000DF91CF911F91089586B7846A86BF06B6F5
:1002C00007FEFDCF089586B7846986BF089583B978
:1002D00086B78F71806C86BF06B607FEFDCF81B1F1
:1002E0009927887F9070889711F088E2A3DF08959E
:1002F0000F931F93CF93DF93062F10E0161730F460
:10030000EC018991E4DF1F5F1017D8F3DF91CF91E3
:100310001F910F9108951F93CF93C82F162FCCDFF5
:1003200081B19927887F9070089741F081B1992712
:10033000887F9070409711F088E07CDFC10FC3B9CF
:1003400086B78F71806886BF06B607FEFDCF112382
:1003500041F481B19927887F9070489759F088E1DE
:1003600008C081B19927887F90708034910511F081
:1003700080E460DFCF911F910895382F26B72F7248
:10038000992746E0880F991F4A95E1F7282B2068A6
:1003900026BF06B607FEFDCF313049F481B199275B
:1003A000887F90708035910559F080E508C081B153
:1003B0009927887F90708835910511F088E53ADF9C
:1003C00083B199270895FF920F931F93CF93DF93E3
:1003D000EC01FF24062F1127C801019718161906F2
:1003E00074F481E0CADFFE01EF0DF11D8083F39408
:1003F0002F2D3327C80101972817390794F380E080
:10040000BCDFCF0DD11D8883DF91CF911F910F915C
:10041000FF9008950F931F938C018EEC90E0DFDE28
:10042000F8018281805DD7DEF801808191814AE008
:1004300050E06EE971E024E0969587952A95E1F702
:100440003CD182E091E0CBDE8EE991E0C8DE4AE06B
:1004500050E06EE971E0F801808191812ED18BE04E
:1004600091E0BDDE8EE991E0BADE1F910F91089513
:10047000CF93DF93EC0128813981A901460F511DEB
:10048000CA0181509140F0F08A81E82FFF27EE0FDA
:10049000FF1FE257FE4F318320838A818F5F8A835B
:1004A000883028F087E191E09ADE87E08A8319821C
:1004B000188288E491E093DE8A81805D8CDE87E695
:1004C00091E08DDEDF91CF9108956F927F928F92B0
:1004D0009F92AF92BF92CF92DF92EF92FF920F93D3
:1004E0001F93CF93DF93CDB7DEB721970FB6F89464
:1004F000DEBF0FBECDBF4C01A62E3A0181E089833D
:10050000FA01808191818F709070D62ED80ED6948A
:10051000D694D694D694BB24CB2CF3018281992710
:10052000880F991F60E0806AF6DE0C2D1127F30119
:1005300080819181800FCBDE7801E80CF91C08C026
:100540001982F70181917F01C2DEC3940F5F1F4FB3
:10055000F301808191818F709070800F911F8F7057
:100560009070892B19F4F981F13011F4CA1440F319
:10057000AADE81E089838AE090E005DEB394DB1493
:1005800060F621960FB6F894DEBF0FBECDBFDF91A7
:10059000CF911F910F91FF90EF90DF90CF90BF9080
:1005A000AF909F908F907F906F900895E82FFF27D6
:1005B000EE0FFF1FE257FE4F808191810895E82FD3
:1005C000FF27EE0FFF1FE257FE4F718360830895F0
:1005D000CF92DF92EF92FF920F931F936C01E62E62
:1005E0008A01FA0182819927880F991F50EAF52E16
:1005F00060E08F2990DEF801808169DEF801828158
:100600009927880F991F61E08F2985DE6E2DC6011D
:10061000DADE59DE1F910F91FF90EF90DF90CF90BF
:100620000895FF920F931F93CF93DF93CDB7DEB75B
:10063000C355D0400FB6F894DEBF0FBECDBFF62E27
:100640008E010F5A1F4FF8011182108282838AE6B1
:1006500091E0C5DDF8018281805DBDDD87E691E036
:10066000BEDDF8011182108212C0A8016F2DCE01EB
:100670000196AEDF8BE891E0B2DDCE010196AFDDF1
:10068000F801808191818F0D911D91838083F80104
:1006900082818CDFF801208131812817390728F306
:1006A000CD5ADF4F0FB6F894DEBF0FBECDBFDF913E
:1006B000CF911F910F91FF900895FB019F01423050
:1006C0006CF045325CF4642F77271BD0805D8A3351
:1006D0000CF0895D8193CB010097A9F71082C901C5
:1006E00000C0DC01FC0101900020E9F73297AE1751
:1006F000BF0730F47C916081708331976D93F7CFA1
:100700000895AA1BBB1B51E107C0AA1FBB1FA61758
:10071000B70710F0A61BB70B881F991F5A95A9F7AA
:0A07200080959095BC01CD0108956D
:10072A0053484954004C48042952041904070A0D35
:10073A000A0D0A0D417474656D70696E6720746FD5
:10074A00207472616E736D69742074686520636FBA
:10075A0064653A203078000A0D45787065637465DF
:10076A006420436F6465207761733A203078000A09
:10077A000D41637475616C2052657475726E65649F
:10078A0020436F6465207761733A203078000A0D40
:10079A0043757272656E74206C6F636174696F6EF3
:1007AA00206F662074686520454550524F4D205091
:1007BA006F696E7465723A200A0D426C6F636B3A08
:1007CA0020000A0D506167653A20000A0D416464F1
:1007DA00726573733A20000A0D5761726E696E670B
:1007EA00203A20416C6C206D656D6F727920626CC5
:1007FA006F636B732068617665206265656E20752C
:10080A0073656420757021000A0D4E6F7720777228
:10081A006974696E6720746F206D656D6F727920D7
:10082A00626C6F636B3A000A0D000A0D4E6F7720F7
:10083A0072656164696E672066726F6D206D656DA1
:0E084A006F727920626C6F636B3A000D0A00CA
:00000001FF
