:1000000012C0DEC02AC029C028C027C026C025C013
:1000100024C023C022C021C020C01FC01EC01DC0DC
:100020001CC01BC01AC011241FBECFE5D4E0DEBF28
:10003000CDBF10E0A0E6B0E0EAEBF8E002C005902A
:100040000D92A839B107D9F710E0A8E9B0E001C0D6
:100050001D92AB39B107E1F701C0D2CFC5E5D4E0BD
:10006000DEBFCDBF41E060E08CE034D18BB780646F
:100070008BBF85B7836085BF78948A98929885E016
:100080005DD3A3D381E033D387E015D361E08FEF55
:1000900093E08FD281E0B8D2FF24A3D38C0187E410
:1000A00065D14AE050E0BE016F5F7F4FC801BAD30F
:1000B000CE010196E8D180E690E0E5D188EE93E0AC
:1000C000D8D0C8010FD28FEF93E0801B910B32D2B2
:1000D000F394F7FE03C08F2D809501C08F2DB1D210
:1000E000DCCF9F92AF92BF92CF92DF92EF92FF92BE
:1000F0000F931F93CF93DF93CDB7DEB72A970FB639
:10010000F894DEBF0FBECDBF8C01E5ECF0E0BF017F
:10011000ADD3962EC801BF01A9D36C019AE0E92E98
:10012000F12CEE0EFF1E8AE0A82EB12CC701B501FE
:10013000B1D3C6019BD36B01C801BF0197D3FC01AA
:10014000C701B501A7D3CF0191D38C01C70164E6E4
:1001500070E0A0D3C8018AD38B01A501BE016F5FF7
:100160007F4F892D99275ED3CE0101968CD18EE2E7
:10017000FDD0A501BE016F5F7F4FC60153D3CE01F5
:10018000019681D1A501BE016F5F7F4FC8014AD39F
:10019000CE01019678D183E690E075D12A960FB60C
:1001A000F894DEBF0FBECDBFDF91CF911F910F91AD
:1001B000FF90EF90DF90CF90BF90AF909F90089509
:1001C0001F920F920FB60F9211242F933F934F93CC
:1001D0005F936F937F938F939F93AF93BF93EF93AF
:1001E000FF9388E59BE145D08CE690E04CD188E513
:1001F0009BE13FD0FF91EF91BF91AF919F918F9184
:100200007F916F915F914F913F912F910F900FBE12
:100210000F901F901895CF93DF93CDB7DEB724973B
:100220000FB6F894DEBF0FBECDBF9A83898384E0FA
:10023000809353001C821B822B813C8189819A818F
:100240002817390768F410925200809152008430C8
:1002500008F4FBCF8B819C8101969C838B83ECCF30
:1002600024960FB6F894DEBF0FBECDBFDF91CF91BD
:100270000895CF93DF93CDB7DEB726970FB6F894E6
:10028000DEBF0FBECDBF9A8389831C821B822B8168
:100290003C8189819A812817390798F41E821D8232
:1002A0008D819E818B35910530F48D819E810196E3
:1002B0009E838D83F5CF8B819C8101969C838B835C
:1002C000E6CF26960FB6F894DEBF0FBECDBFDF9106
:1002D000CF910895CF93DF93CDB7DEB725970FB6B3
:1002E000F894DEBF0FBECDBF89836A834B838981BB
:1002F000882329F488E990E08C839D8310C089814C
:10030000809398008A81809399008B8180939A00D2
:1003100083E08093530088E990E08C839D838C81F7
:100320009D8125960FB6F894DEBF0FBECDBFDF913D
:10033000CF910895CF93DF93CDB7DEB721970FB656
:10034000F894DEBF0FBECDBF89831092520090910A
:1003500052008981981708F4FACF21960FB6F894C5
:10036000DEBF0FBECDBFDF91CF910895CF93DF9356
:10037000CDB7DEB726970FB6F894DEBF0FBECDBF60
:10038000898340E060E080E0A5DF8B839C83EB8184
:10039000FC8180818D838B819C81FC0131968081E1
:1003A0008E838E81282F332781E090E002C0880F52
:1003B000991F2A95E2F720913100822B809331001A
:1003C0008981809589838E81282F332781E090E071
:1003D00002C0880F991F2A95E2F720913200822BE4
:1003E000809332008D81A6DF1A828A81883078F569
:1003F00089818170882399F48E81282F332781E0A9
:1004000090E0022E02C0880F991F0A94E2F7982FFD
:100410009095809132008923809332000FC08E81A5
:10042000282F332781E090E002C0880F991F2A957A
:10043000E2F720913200822B809332008D817ADFA7
:100440008981869589838A818F5F8A83CECF8E81C9
:10045000282F332781E090E002C0880F991F2A954A
:10046000E2F7982F90958091320089238093320093
:100470008D8160DF26960FB6F894DEBF0FBECDBF2C
:10048000DF91CF910895CF93DF93CDB7DEB7239758
:100490000FB6F894DEBF0FBECDBF89839A831B824F
:1004A0008B81282F332789819A81F901E80FF91F61
:1004B0008081882371F08B81282F332789819A814D
:1004C000F901E80FF91F808151DF8B818F5F8B83EA
:1004D000E7CF23960FB6F894DEBF0FBECDBFDF91F6
:1004E000CF910895CF93DF93CDB7DEB722970FB6A4
:1004F000F894DEBF0FBECDBF89839A838091370009
:1005000082608093370080914F00982F9F7B80E816
:10051000892B80934F0089819A8190934B0080931F
:100520004A0022960FB6F894DEBF0FBECDBFDF9112
:10053000CF910895CF93DF93CDB7DEB722970FB653
:10054000F894DEBF0FBECDBF89839A8380913700B8
:1005500084608093370080914F008F7E806280930B
:100560004F0089819A819093490080934800229698
:100570000FB6F894DEBF0FBECDBFDF91CF910895C7
:10058000CF93DF93CDB7DEB78FE390914F008923F0
:1005900080934F00DF91CF910895CF93DF93CDB734
:1005A000DEB780914F008F7C80934F00DF91CF9119
:1005B0000895CF93DF93CDB7DEB723970FB6F894A6
:1005C000DEBF0FBECDBF89839A836B8380914F00BE
:1005D0008E7F826080934F0080914E00982F987F8D
:1005E0008B81892B886180934E0089819A819093B9
:1005F00047008093460023960FB6F894DEBF0FBEE7
:10060000CDBFDF91CF910895CF93DF93CDB7DEB704
:1006100021970FB6F894DEBF0FBECDBF89838091BE
:100620004500982F987F8981892B886480934500A5
:1006300021960FB6F894DEBF0FBECDBFDF91CF91EC
:100640000895CF93DF93CDB7DEB721970FB6F89417
:10065000DEBF0FBECDBF8983809137008860809355
:100660003700809145008F7E8062809345008981AC
:100670008093430021960FB6F894DEBF0FBECDBF26
:10068000DF91CF910895CF93DF93CDB7DEB78091FF
:1006900045008F7C80934500DF91CF910895CF93E3
:1006A000DF93CDB7DEB786E006D081E020D08DD0D5
:1006B000DF91CF910895CF93DF93CDB7DEB7219728
:1006C0000FB6F894DEBF0FBECDBF898380912600A0
:1006D000982F987F8981892B8093260021960FB6C9
:1006E000F894DEBF0FBECDBFDF91CF910895CF93B9
:1006F000DF93CDB7DEB721970FB6F894DEBF0FBEFC
:10070000CDBF89839FE380912700292F28238981EA
:100710009927002496958795079496958795079431
:10072000982F802D822B8093270021960FB6F89466
:10073000DEBF0FBECDBFDF91CF910895CF93DF9382
:10074000CDB7DEB721970FB6F894DEBF0FBECDBF91
:10075000898380912700982F907F8981892B8093AE
:10076000270021960FB6F894DEBF0FBECDBFDF91F4
:10077000CF910895CF93DF93CDB7DEB78091260058
:100780008F7D806480932600809126009927002425
:10079000880F991F001C880F991F001C892F902D0E
:1007A00081709070009709F0EFCFDF91CF9108959D
:1007B000CF93DF93CDB7DEB78FE7909126008923E3
:1007C00080932600DF91CF910895CF93DF93CDB72B
:1007D000DEB780912600806880932600DF91CF915C
:1007E0000895CF93DF93CDB7DEB7809127008F7D3B
:1007F00080932700BFDF8091240090912500DF9136
:10080000CF910895CF93DF93CDB7DEB780912700C6
:10081000806280932700AEDF809125009927DF91C9
:10082000CF910895FB019F0142306CF045325CF49A
:10083000642F77271BD0805D8A330CF0895D81930C
:10084000CB010097A9F71082C90100C0DC01FC01AF
:1008500001900020E9F73297AE17BF0730F47C9182
:100860006081708331976D93F7CF0895AA1BBB1BEE
:1008700051E107C0AA1FBB1FA617B70710F0A61BA0
:10088000B70B881F991F5A95A9F780959095BC01C1
:10089000CD01089597FB092E07260AD077FD04D0D5
:1008A000E5DF06D000201AF4709561957F4F08951A
:0A08B000F6F7909581959F4F08958B
:1008BA000D0A0020566F6C74730D0A00596F207769
:1008CA0061737375702064756465733F20496E7433
:1008DA006572727570742030207761732074726942
:0808EA00676765726564210077
:00000001FF
