:020000020000FC
:107000000C942A380C9447380C9447380C94473821
:107010000C9447380C9447380C9447380C944738F4
:107020000C9447380C9447380C9447380C944738E4
:107030000C9447380C9447380C9447380C944738D4
:107040000C9447380C9447380C9447380C944738C4
:107050000C94473811241FBECFE5D8E0DEBFCDBF6A
:1070600010E0A0E6B0E0EEE8F5E700EB01BF02C0FB
:1070700005900D92A036B107D9F710E0A0E6B0E078
:1070800001C01D92A036B107E1F70C941F390C9492
:1070900000380F931F93CF93DF938C01EA0165347F
:1070A00089F4888199818EBB292F33272FBB0196C4
:1070B00099838883E09A8DB30E94BF3A01501040B3
:1070C00081F721C06634F9F488819981880F991F6E
:1070D00099838883E881F981E4918E2F0E94BF3AD9
:1070E000E881F9813196E4918E2F0E94BF3A888120
:1070F00099810296998388830250104059F796959A
:10710000879599838883DF91CF911F910F9108957F
:10711000AF92BF92CF92DF92EF92FF920F931F93A5
:10712000CF93DF93CDB7DEB7C058D0400FB6F894F9
:10713000DEBF0FBECDBF5C016A01653471F500E0B2
:1071400010E008C00E94C43AFE01E00FF11F8183E5
:107150000F5F1F4F0A151B05A9F707B600FCFDCFEF
:1071600040E050E0FE0114C0D6012D913C912EBBB1
:10717000832F99278FBB80818DBBE29AE19AE19999
:10718000FECF2F5F3F4FD6012D933C934F5F5F4F54
:1071900031964A155B0541F73EC0663419F08FE31E
:1071A00090E03BC0FA01E080F180EE0CFF1CF18220
:1071B000E0820E94C43A082F11270E94C43AD601E7
:1071C0002D913C9141E09927982F8827082B192B66
:1071D0000801F90140935700E89511242E5F3F4FB5
:1071E000F601318320838EEF9FEFA80EB91EA11404
:1071F000B104F9F685E0F70180935700E89507B6EA
:1072000000FCFDCF81E180935700E89536952795E6
:10721000D6012D933C938DE090E0C058DF4F0FB620
:10722000F894DEBF0FBECDBFDF91CF911F910F91BC
:10723000FF90EF90DF90CF90BF90AF900895EF92C6
:10724000FF920F931F93CF93DF93CDB7DEB72297B3
:107250000FB6F894DEBF0FBECDBF949A0E94BA3A23
:10726000849971C10E94C43A982F813611F489E53E
:1072700067C1813471F40E94C43A082F0E94C43A55
:107280001127102F00279927082B192B1A83098300
:107290002AC1853689F480E090E023E007B600FC3F
:1072A000FDCFFC0120935700E89580589F4F38E3AD
:1072B0008030930798F371C0823641F489E50E94CB
:1072C000BF3A80E00E94BF3A80E83AC18234A9F414
:1072D0000E94C43A082F0E94C43A1127F02EEE24CF
:1072E0009927E82AF92A0E94C43AAE014F5F5F4FFE
:1072F000682FC7010E94883823C18736A9F40E94ED
:10730000C43A082F0E94C43A1127F02EEE24992780
:10731000E82AF92A0E94C43AAE014F5F5F4F682FF6
:10732000C7010E9449389ECF8235B9F407B600FCE8
:10733000FDCF81E180935700E895E981FA81EE0F56
:10734000FF1F3196E4918E2F0E94BF3AE981FA81A6
:10735000EE0FFF1FE4918E2F59C0833629F40E944F
:10736000C43AE82EFF24BFC08334D1F40E94C43A4B
:107370009927982F8827E82AF92A07B600FCFDCF1D
:1073800089819A8141E09C01220F331F0701F90195
:1073900040935700E895112401969A838983A3C0EE
:1073A0008D36A9F429813A818CE12030380720F00C
:1073B0008FE30E94BF3A97C007B600FCFDCF85E07F
:1073C000220F331FF90180935700E8958CC0843455
:1073D00099F407B600FCFDCF89819A818EBB892F75
:1073E00099278FBB0E94C43A8DBBE29AE19AE1993A
:1073F000FECF89819A81D0CF843681F489819A81A8
:107400008EBB892F99278FBBE09A8DB30E94BF3A1C
:1074100089819A8101969A83898324CF8C3669F475
:1074200007B600FCFDCF0E94C43A99E0E1E0F0E02D
:10743000082E90935700E89556C0823751F407B64E
:1074400000FCFDCF89E0E1E0F0E0809357008491FB
:1074500077C0863451F407B600FCFDCF89E0E0E048
:10746000F0E08093570084916BC08E3451F407B6DE
:1074700000FCFDCF89E0E3E0F0E0809357008491C9
:107480005FC0813551F407B600FCFDCF89E0E2E032
:10749000F0E080935700849153C0803521F18C3403
:1074A00011F1853471F407B600FCFDCF81E18093C2
:1074B0005700E8958DE00E94BF3AE0E0F0E00995C2
:1074C000D1CE803711F483E53BC0843729F482E7BD
:1074D0000E94BF3A80E034C08857823010F0943563
:1074E00021F40E94C43A8DE02BC09335A1F481E4CD
:1074F0000E94BF3A86E50E94BF3A82E50E94BF3AE9
:1075000082E40E94BF3A8FE40E94BF3A8FE40E9457
:10751000BF3A84E515C0963529F481E30E94BF3A4D
:1075200085E30EC0933741F482E00E94BF3A85E9BB
:107530000E94BF3A8EE104C09B3109F493CE8FE3E1
:107540000E94BF3A8FCE07B600FCFDCF81E1809349
:107550005700E895E0E0F0E0099522960FB6F89420
:10756000DEBF0FBECDBFDF91CF911F910F91FF9076
:10757000EF90089587E189B988E18AB908958CB9B7
:107580005E9BFECF5E9A08955F9BFECF8CB19927DC
:0275900008955C
:00000001FF
